:020000040000FA
:040000000000502884
:08000800FF1EFF0A0B110900A5
:1000A0000000831603130230860000308700FE0133
:1000B000C730831603138100A0308B00831603130F
:1000C0000030880083120313C301C401C501C601B7
:1000D000C701A301A401A501A601A701C801C90187
:1000E000D001D101D201D301FD01FE01FF01F001D8
:1000F000F101F401F501A801E6217E280000722239
:10010000C801D001FE01D101D301FA201430F4104E
:10011000D421FE010230FD005114E0207E08C90008
:10012000D4001430F410D421FE01D1015E2114302A
:10013000F410D42151140330FE0008221430F410BE
:10014000D4214908031DE22A162A0422E621962218
:10015000530887001430F410D421D1013808FE0070
:1001600008221430F410D4213708FE00082214307D
:10017000F410D4213608FE0008221430F410D421E3
:100180003508FE0008221430F410D4213408FE0093
:1001900008221430F410D4213308FE000822FF1E78
:1001A000CF28FF30C821F4100130D4210230D421EF
:1001B0007E287E0882072B3425342F343D340800F6
:1001C0008312031308228101FF01861CE828EB2813
:1001D000FF1EE528F9288101FF017D087E02031931
:1001E000F228F428FE01F528FE0A08228618F628CF
:1001F000E52808000630FD008101FF01E0207E08AF
:10020000C3001430F410D42106304302031D0A2920
:1002100005300B290930FD00FE018101FF01E020BE
:100220007E08C4001430F410D42106304302031DAC
:100230001F2905304402031D1F29053020290930DC
:10024000FD00FE018101FF01E0207E08C5001430A1
:10025000F410D42106304302031D3829053044022E
:10026000031D382905304502031D3829033039297B
:100270000930FD00FE018101FF01E0207E08C6007B
:100280001430F410D42106304302031D55290530E3
:100290004402031D552905304502031D552903302D
:1002A0004602031D5529053056290930FD00FE017F
:1002B0008101FF01E0207E08C70008000630FD0034
:1002C0008101FF01E0207E08A3001430F410D42146
:1002D00006302302031D6E2905306F290930FD0009
:1002E000FE018101FF01E0207E08A4001430F4101B
:1002F000D42106302302031D832905302402031D67
:100300008329053084290930FD00FE018101FF01A8
:10031000E0207E08A5001430F410D421063023021A
:10032000031D9C2905302402031D9C29053025024C
:10033000031D9C2903309D290930FD00FE01810128
:10034000FF01E0207E08A6001430F410D42106300E
:100350002302031DB92905302402031DB9290530E4
:100360002502031DB92903302602031DB9290530D2
:10037000BA290930FD00FE018101FF01E0207E085D
:10038000A7000800F930F0000000F00BC4290800B5
:10039000F100C221F10BC9290800831203130815CB
:1003A000C2210811C221080083120313F500F0399D
:1003B0008800F4188814CD21C221F50E7508F03993
:1003C0008800F4188814CD21C22108008312031379
:1003D00088016430C821F030F40030308800CD212D
:1003E0000530C821CD21C221CD210812CD212830D0
:1003F000D4210830D4210130D4210630D4218030DA
:10040000D4210C30D42108000130F410D42108008C
:100410008312031351180F2A7E08303E102AD92068
:10042000F414D4211030F410D4210800B301B40125
:10043000B501B601B701B801B9010030B9008001BA
:10044000470827073907B3003308093C031C2B2A48
:100450000030B9002F2A0A30B3020130B900800100
:10046000460826073907B4003408093C031C3B2A18
:100470000030B9003F2A0A30B4020130B9008001CF
:10048000450825073907B5003508093C031C4B2AE8
:100490000030B9004F2A0A30B5020130B90080019E
:1004A000440824073907B6003608093C031C5B2AB8
:1004B0000030B9005F2A0A30B6020130B90080016D
:1004C000430823073907B7003708093C031C6B2A88
:1004D0000030B9006F2A0A30B7020130B90039087C
:1004E000B800A528D101F4144530D4216E30D421B0
:1004F0007430D4216530D4217230D4210030D4211D
:100500004F30D4217030D4216530D4217230D421C1
:100510006130D4217430D4216930D4216F30D4219A
:100520006E30D421F410C030D4210800D101F4146D
:100530005230D4214530D4215330D4215530D421E8
:100540004C30D4215430D4213A30D421F410C0306E
:10055000D421F4143D30D4213808FE000822143090
:10056000F410D4213708FE0008221430F410D421EE
:100570003608FE0008221430F410D4213508FE009D
:1005800008221430F410D4213408FE00082214305C
:10059000F410D4213308FE000822B830C821C92144
:1005A000292C08002708031D08002608031D080041
:1005B0002508031D08002408031D08002308031D47
:1005C0000800092DD2220130A100B301B401B50108
:1005D000B601B701B801E501E601E701E801E9016B
:1005E0004708E0004608E1004508E2004408E3004F
:1005F0004308E400031423086402E900031CC62B2B
:10060000031424086302E800031C072B112B69085C
:100610000319C62BB70363080A3EB0002408300252
:10062000E800031425086202E700031C182B2F2B97
:1006300068080319232BE80362080A3EB000250866
:100640003002E7002F2B69080319C62BE903093094
:10065000E80062080A3EB00025083002E7000314F3
:1006600026086102E600031C362B5C2B6708031981
:10067000412BE70361080A3EB00026083002E6007D
:100680005C2B680803194E2BE8030930E70061086A
:100690000A3EB00026083002E6005C2B6908031908
:1006A000C62BE9030930E8000930E70061080A3E7B
:1006B000B00026083002E600031427086002E500B7
:1006C000031C632B9A2B660803196E2BE603600844
:1006D0000A3EB00027083002E5009A2B670803198C
:1006E0007B2BE7030930E60060080A3EB0002708CC
:1006F0003002E5009A2B680803198A2BE8030930B9
:10070000E7000930E60060080A3EB0002708300222
:10071000E5009A2B69080319C62BE9030930E800A4
:100720000930E7000930E60060080A3EB0002708FB
:100730003002E5006508E0006608E1006708E200B5
:100740006808E3006908E400B30A03140A303302BE
:10075000031CFA2AAB2BB300B40A03140A30340288
:10076000031CFA2AB32BB400B50A03140A3035026D
:10077000031CFA2ABB2BB500B60A03140A30360252
:10078000031CFA2AC32BB600B70AFA2A4908013C0F
:10079000031DA5280030B900800165082707390727
:1007A000E5006508093C031CD82B0030B900DC2BA0
:1007B0000A30E5020130B9008001660826073907D2
:1007C000E6006608093C031CE82B0030B900EC2B5E
:1007D0000A30E6020130B9008001670825073907B1
:1007E000E7006708093C031CF82B0030B900FC2B1C
:1007F0000A30E7020130B900800168082407390790
:10080000E8006808093C031C082C0030B9000C2CD7
:100810000A30E8020130B90080016908230739076E
:10082000E9006908093C031C182C0030B9001C2C95
:100830000A30E9020130B9000030B8006908B70099
:100840006808B6006708B5006608B4006508B3001C
:10085000A528E621D101F4144B30D4214530D42110
:100860004530D4215030D4213F30D4212030D42100
:100870005B30D4213130D4213A30D4215930D421C5
:100880002C30D4212030D4213230D4213A30D4211C
:100890004E30D4215D30D421F410C030D421FE017B
:1008A0000130FE00D1010230FD008101FF01282549
:1008B0007E08870002308800070808060319672CA5
:1008C000031D6A2C1430F410F414D1010800042222
:1008D000E6217E200422E621D101F4141430F41024
:1008E000D4214308FE0008221430F410D421440817
:1008F000FE0008221430F410D4214508FE0008221E
:100900001430F410D4214608FE0008221430F410EC
:10091000D4214708FE0008221430F410D421FE012F
:100920000230FD005114E0207E08C9001430F4109C
:10093000D421FE01D1011430F410D4212308FE008B
:1009400008221430F410D4212408FE0008221430A8
:10095000F410D4212508FE0008221430F410D4210C
:100960002608FE0008221430F410D4212708FE00C7
:100970000822F410C030D421F4143D30D4210030CA
:100980009000100849060319162A031DE22A53088D
:1009900087001430F410D421D1013808FE00082259
:1009A0001430F410D4213708FE0008221430F4105B
:1009B000D4213608FE0008221430F410D421350862
:1009C000FE0008221430F410D4213408FE0008225E
:1009D0001430F410D4213308FE0008228101FF01F5
:1009E000FF1EF02CFF30C821F4100130D42102305A
:1009F000D421F410C030D421B830C821C921292C09
:100A000000309000100849060319162A031D162A03
:100A100008000422E621D101F4144D30D4214130E4
:100A2000D4215430D4214830D4212030D421453031
:100A3000D4215230D4215230D4214F30D4215230DD
:100A4000D421F410C030D421D030C821C92150287D
:100A50008312031344258101FF01861C302D332DA1
:100A6000FF1E2D2D432D8101FF017D087E020319FC
:100A70003A2D3E2DFE010130FE003F2DFE0A442599
:100A80008618402D2D2D08008312031351184B2D6D
:100A90007E08303E4C2DD920F414D4211030F410AF
:040AA000D421080055
:00000001FF
